:020000040800F2
:1000000080C4012075580008EF0F0008F10F0008A8
:10001000F50F0008F90F0008FD0F000800000000B0
:1000200000000000000000000000000001100008B7
:100030000310000800000000051000080710000869
:100040008F5800088F5800088F5800088F580008F4
:100050008F5800088F5800088F5800088F580008E4
:100060008F5800088F5800088F5800088F580008D4
:100070008F5800088F5800088F5800088F580008C4
:100080008F5800088F5800088F5800088F580008B4
:100090008F5800088F5800088F5800088F580008A4
:1000A0008F5800088F5800088F5800088F58000894
:1000B000F90E00088F5800088F5800088F58000864
:1000C0008F5800088F5800088F5800088F58000874
:1000D0008F5800081B3A00086B4900084557000874
:1000E0008F5800088F5800088F5800088F58000854
:1000F0008F5800088F5800088F5800088F58000844
:100100008F580008492F00088F5800088F580008A2
:100110008F5800088F5800088F5800088F58000823
:100120008F5800088F5800088F5800088F58000813
:100130008F5800088F5800088F5800088F58000803
:100140008F5800088F5800088F5800088F580008F3
:100150008F5800088F5800088F5800088F580008E3
:100160008F5800088F5800088F5800088F580008D3
:100170008F5800088F5800088F5800088F580008C3
:100180008F5800088F58000800F002F800F064F85B
:100190000AA090E8000C82448344AAF10107DA45E2
:1001A00001D100F059F8AFF2090EBAE80F0013F0D0
:1001B000010F18BFFB1A43F001031847B881030071
:1001C000D88103000A444FF0000C10F8013B13F0F3
:1001D000070408BF10F8014B1D1108BF10F8015BA0
:1001E000641E05D010F8016B641E01F8016BF9D193
:1001F00013F0080F1EBF10F8014BAD1C0C1B09D1EA
:100200006D1E58BF01F801CBFAD505E014F8016B5B
:1002100001F8016B6D1EF9D59142D6D370470000ED
:100220000023002400250026103A28BF78C1FBD8FF
:10023000520728BF30C148BF0B60704764290BF0DC
:100240005F8073290BF0D582002070471FB50DF039
:10025000CEF81FBD10B510BD0BF0EEFA1146FFF73A
:10026000F5FF00F013FB0BF00CFB03B4FFF7F2FFFC
:1002700003BC03F02DFB000030BF72B6704762B6BE
:10028000704780F30888704710B5E24890F8560030
:1002900030B1012808D002280AD0032810D10BE081
:1002A000DDA00AF0AFFF0BE0E1A00AF0ABFF07E032
:1002B000E5A00AF0A7FF03E0E9A00AF0A3FF00BF52
:1002C00000BFD44890F82C10EBA00AF09BFFD14857
:1002D000B0F85410EFA00AF095FFCE48D0E91220F4
:1002E000030343EA1251EFA00AF08CFFC948016DE5
:1002F000F2A00AF087FF10BD10B5F6490122086888
:10030000F5A108F0CBFFF54908700846007820B148
:1003100008460178F2A00AF075FF10BD10B5ED494E
:1003200001220868ECA108F0B9FFEC490870084602
:10033000007820B108460178E9A00AF063FFF1A037
:100340000AF060FF0A22F5A1F84808F0D2FFE3495D
:1003500008700846007828B108460178F4A00AF031
:1003600051FF1BE03720F84908600B460722F74988
:10037000EE4809F05EF9D94908700846007828B9B6
:10038000F1480168F2A00AF03DFF04E0D34801788B
:10039000F7A00AF037FFE54809F098FAFAA00AF04A
:1003A00031FF0122DDA1FE4808F0A3FFCB49087010
:1003B0000846007828B108460178DDA00AF022FF3F
:1003C0001CE0F84B0722F849F54809F052F8C349F8
:1003D00008700846007848B9F2480168F3A00AF0AE
:1003E00011FFF149F7A00AF00DFF04E0BB480178C6
:1003F000F6A00AF007FFEA4809F068FA10BD0246C5
:10040000002004E0135C0BB920231354401C4B1E46
:100410008342F7D8704710B5AE4901220868AEA1F3
:1004200008F03CFFAD4908700846007820B1084646
:100430000178ABA00AF0E6FEB2A00AF0E3FE1222B9
:10044000B6A1BA4808F055FFA449087008460078DC
:1004500028B108460178B6A00AF0D4FE1CE0B348E3
:10046000C16809F045FAB84B0722DE49AF4809F0E8
:10047000E0F89A4908700846007828B9B24801683F
:10048000B3A00AF0BFFE04E094480178B8A00AF0D7
:10049000B9FEA64809F01AFABBA00AF0B3FE012281
:1004A0009EA1BF4808F025FF8C49087008460078D7
:1004B00028B1084601789EA00AF0A4FE20E0B848C2
:1004C000B84BB949C26808F0D4FF8449087008469F
:1004D000007868B9B3480168B4A00AF093FE6421BB
:1004E000B148FFF78CFFB049B6A00AF08BFE04E0DC
:1004F0007A480178B5A00AF085FEA94809F0E6F926
:1005000010BDB948006840F00800B7490860802075
:10051000B64908800020091D0880B44924310860CC
:10052000401EB2492C3108605320091F0880012069
:10053000AE4914310880AD48008840F00100AB4955
:10054000088070470020A9492431086870472DE9C8
:10055000F04389B00446884616464FF0000900254E
:100560000027202101A80AF0CDFF002C02DA4FF06D
:10057000FF39644200BF94FBF6F006FB10400928E7
:1005800007DD94FBF6F006FB1040373001A9485513
:1005900006E094FBF6F006FB1040303001A9485508
:1005A0006D1C94FBF6F0041EE5DCB9F1000F03DAD4
:1005B0002D2001A9485500E06D1E2F4605E001A839
:1005C000C05DE91B08F801007F1E002FF7DA4046E6
:1005D00009B0BDE8F0832DE9F0412DED0A8B90B014
:1005E000B0EE408AF0EE608A04460D4600262021D7
:1005F00008A80AF087FF202168460AF083FF51EC23
:10060000180B0CF0F7FA074638460CF022FB41ECC9
:100610001A0BEDE0E00B0020436172642054797006
:10062000653A534453432056312E310D0A000000E1
:100630004361726420547970653A534453432056A1
:10064000322E300D0A00000043617264205479702C
:10065000653A534448432056322E300D0A000000BC
:100660004361726420547970653A4D4D4320436173
:1006700072640D0A0000000043617264204D616ED7
:1006800075666163747572657249443A25640D0A32
:100690000000000043617264205243413A25640D1A
:1006A0000A000000436172642043617061636974F1
:1006B000793A2564204D420D0A00000043617264BE
:1006C00020426C6F636B53697A653A25640D0D0A9D
:1006D0000A000000CCBD0120303A000000000020DC
:1006E0006D6F756E742066696C6573797374656D72
:1006F0002030206661696C6564203A2025640D0A0B
:100700000000000077726974652066696C6520746A
:100710006573742E2E2E2E2E2E0D0A00303A2F7455
:100720006573746E6F772E74787400002005002056
:100730006F70656E2066696C65206572726F7220DD
:100740003A2025640D0A0000F0020020010200207A
:1007500077726974652064617461206F6B21207702
:1007600072697465206E756D3D25640D0A00000088
:1007700077726974652064617461206572726F724A
:10078000203A2025640D0A00726561642066696C58
:100790006520746573742E2E2E2E2E2E0D0A0000E9
:1007A000F8020020EC020020480700207265616416
:1007B0002064617461206E756D203A2025640D0AF5
:1007C0000000000025730D0A0000000072656164DE
:1007D0002066696C65206572726F72203A2025640C
:1007E0000D0A00000802002040380240000C0040C2
:1007F00053EC182B0CF0C8FB41EC190B0A2208A98A
:100800003846FFF7A4FE002C2BDDB0EE490AF0EECF
:10081000690A0BF057F8B0EE40AAF0EE60AA204645
:100820000CF017FA41EC1C0BB0EE4C1AF0EE6C1AFF
:100830009FEDFC0B0BF050F8B0EE40BAF0EE60BA52
:1008400053EC1A2B51EC1B0B0CF06AFA41EC190B10
:1008500051EC190B0CF0CEF980460A226946FFF7DD
:1008600076FE08A80AF0ACFD06462E2008A9885599
:10087000694608A80AF0C3FD08A928460AF07CFDCD
:10088000284610B0BDEC0A8BBDE8F08100BF00BF68
:100890004FF4A06005F00EF8A82002F097FFFFF7D4
:1008A00030FE4FF47A3003F020F84FF47A3003F042
:1008B00056F94FF47A3004F0EAFA00F0C5FC00F083
:1008C000E1FC0F21D94805F069F9002007F04FF845
:1008D000022007F04CF80F21D44805F05DF905E03F
:1008E000D3A00AF08FFCC82002F0D2FF01F0FFFA7B
:1008F0000028F5D1FFF7C8FC0AF038FBFFF7FCFC35
:1009000002F008FCCE4902209FEDCE0BFFF763FEFC
:10091000CB4902209FEDCD0BFFF75DFEC8490520B6
:100920009FEDC80BFFF757FEC54905209FEDC70B8C
:10093000FFF751FE0120C74908704FF47A71042077
:1009400002F065FC532140F2CF7002F042FC00E05F
:1009500000BFFDE710B5ADF57A7D04464FF47A711E
:1009600068460AF0CFFD2146BBA00AF04BFC0122ED
:100970002146BD4808F0BDFCBC4908700846007817
:10098000B8B9B948BA4B6946C26808F072FDB749B0
:1009900008700846007848B94FF47A716846FFF746
:1009A0002EFD6946AFF2E4100AF02CFCAE4808F0C8
:1009B0008DFF0DF57A7D10BDF0B585B01422AD49DF
:1009C00068460AF06DFD0026684609F0C8FA074639
:1009D000002404E000200DF80400601CC4B2142CB4
:1009E000F8DB002629E0A44A0021084602F0A0FE18
:1009F000002507E0A048405D10B920209E494855D9
:100A0000681CC5B20F2DF5DB00209B4948733246A8
:100A10009AA168460AF002FC684609F0A0FA074667
:100A2000002404E000200DF80400601CC4B2142C63
:100A3000F8DB07B904E0701C86B2B6F5806FD2DB34
:100A400000BF304605B0F0BD2DE9FF4F2DED028B04
:100A5000C1B0064689469B46282137A80AF052FDB8
:100A6000002400250027A046A246142132A80AF03F
:100A700049FDC82168460AF045FD58460CF000F9CA
:100A800041EC180B32A90120B0EE480AF0EE680ADA
:100A9000FFF7A1FD05E032A8005D0DF80400601C21
:100AA00084B232A8005D2E28F5D16D222046611C4B
:100AB0008CB20DF8002073222046611C8CB20DF818
:100AC000002020222046611C8CB20DF80020204618
:100AD000611C8CB20DF800204FF0000A3DE04FF091
:100AE000000807E0002032A901F8080008F1010021
:100AF0001FFA80F8B8F1140FF4DBB6EC010A10EE1F
:100B0000101A08460CF002FC41EC180B32A9B0EEAA
:100B1000480AF0EE680A5198FFF75DFD09E02846A3
:100B2000691C8DB232A90A5C2046611C8CB20DF89A
:100B3000002032A8405D0028F1D100252022204667
:100B4000611C8CB20DF800202046611C8CB20DF89F
:100B500000200AF101001FFA80FA50988245BEDB9E
:100B60000D222146601C84B20DF801200A22204685
:100B7000611C8CB20DF8002001E0781C87B21DF8D2
:100B800007000028F9D13DA137A8459A0AF046FB95
:100B9000002405E037A8005D00B903E0601C84B2C2
:100BA000282CF7DB00BF2F222046611C8CB237A90E
:100BB0000A54002506E019F80500611937AA5054B7
:100BC000681C85B2142DF6DB122237A9304808F0D4
:100BD00090FB264908700846007830B10846017835
:100BE000AFF2B4400AF00EFB17E02948C16808F0E4
:100BF0007FFE284B3A466946254808F01AFD1B49F6
:100C000008700846007828B108460178AFF2A04085
:100C10000AF0F8FA1E4808F059FE41B0BDEC028B0C
:100C2000BDE8FF8F000000000000244000080240E3
:100C3000BCECB2E2B2BBB5BD5344BFA80D0A000084
:100C4000300B00209A99999999992AC09A99999963
:100C500099992A401C020020726561642066696CC3
:100C6000653A25730D0A0000F802002000000020FC
:100C7000EC020020F4D40008440B0020303A2F444A
:100C80004154415F4F55542F4F44535F256400003A
:100C900020050020F002002070B52DED068B96B0E7
:100CA0000646502102A80AF02DFCFFF74BFC8149B3
:100CB00008600846006880490968884210D27E486A
:100CC00000684FF6FF71081A7A490968084400EE77
:100CD000100AB8EE400ADFED790A80EE208A0CE0B7
:100CE0007448006874490968401A00EE100AB8EEAA
:100CF000400ADFED720A80EE208A6E4800686E4975
:100D000008609FED6F0A28EE000ABCEEC00A10EEE4
:100D1000100AC5B26B48007820B1012809D002281A
:100D20007DD111E06848007810B101206549087054
:100D3000BBE0FFF741FE6549088000206449086078
:100D4000022060490870B0E05F48007838B90020A0
:100D5000604908705E4908605A4908709AE05A482C
:100D6000007818B10F215C4804F016FF00245B489E
:100D700090ED010A2146641C02A800EB810080ED81
:100D8000000A564890ED000A2146641C02A800EBB8
:100D9000810080ED000A514890ED020A2146641C52
:100DA00002A800EB810080ED000A4C4890ED190A82
:100DB000B8EEC00A2146641C02A800EB810080ED59
:100DC000000A464890ED1A0AB8EEC00A2146641C93
:100DD00002A800EB810080ED000A404890ED1B0A5C
:100DE000B8EEC00A2146641C02A800EB810080ED29
:100DF000000A3A4890ED060AB8EEC00A2146641C83
:100E000002A800EB810080ED000A344890ED070A4B
:100E1000B8EEC00A2046611CCCB202A900E03AE05C
:100E200001EB800080ED000A2C4890ED080AB8EE36
:100E3000C00A2046611CCCB202A901EB800080ED03
:100E4000000A0220CDE90040214803681F480288BB
:100E500023A102A8FFF7F8FD00241D4800682844DC
:100E60001B490860084690ED000AB8EE400A10EEF3
:100E7000100A0CF04BFA41EC1A0B9FED1C0B53ECD3
:100E8000102B0BF05FFD41EC190B0BF0B3FE194971
:100E9000086000BF09E000200A4908700A4908708C
:100EA0000C4908700A49086000BF00BF16B0BDECCD
:100EB000068B70BD1402002010020020002474492B
:100EC00000007A4426020020190200202802002097
:100ED0002C0200201A02002000100240A00F002067
:100EE000686D6C5F7961772E747874000000000083
:100EF00000408F402002002010B50121880706F035
:100F000012FC012872D1FFF71DFB3F49086008461B
:100F100000683E490968884213D23C4800684FF691
:100F2000FF71081A38490968084400EE100AB8EE43
:100F3000400ADFED370A80EE201A364880ED001AAD
:100F40000FE03148006831490968401A00EE100A84
:100F5000B8EE400ADFED2E0A80EE201A2D4880ED13
:100F6000001A294800682949086002F062F92A48F5
:100F70000088401C2849088028480088401C2749D0
:100F8000088027480088401C25490880254801889A
:100F90000088401C234A108023480078814215DDD8
:100FA0000020114608802148007830B92048007898
:100FB00018B100201E49087005E01D48007810B1E6
:100FC00000201A4908700020FFF766FE19480188C2
:100FD0000088401C174A1080B1F5FA7F02DD00201E
:100FE000114608800121880706F0AEFB10BD70474E
:100FF00000BFFEE700BFFEE700BFFEE700BFFEE761
:101000007047704770477047400200203C02002044
:1010100000247449340200204602002048020020C7
:101020004A0200204C020020380200201902002051
:101030001B0200204E0200200CB500200190009001
:101040007648006840F480307449086000BF7348F7
:10105000006800F4003000900198401C0190009856
:1010600018B90198B0F5A04FF1D16C48006800F4B0
:10107000003010B10120009001E0002000900098A5
:10108000012846D165484030006840F080506349EF
:10109000403108606248006840F4404060490860A0
:1010A0005E48083000685D490831086008460068FD
:1010B00040F4004008600846006840F4A050086012
:1010C0005848091F0860081F006840F08070091F19
:1010D000086000BF5148006800F000700028F9D097
:1010E00040F20570504908604C480830006820F014
:1010F00003004A49083108600846006840F00200D1
:10110000086000BF45480830006800F00C0008285F
:10111000F8D10CBD10B54548006840F47000434953
:1011200008603E48006840F001003C49086000202B
:101130003A4908310860394800683D490840374954
:1011400008603C48091D0860081F006820F48020E2
:10115000091F0860002031490C310860FFF76CFF5F
:101160004FF0006031498039086010BD70B5002033
:101170000022022300240221284D08352D6805F0A5
:101180000C0020B1042806D0082834D107E02A4DED
:101190002A4E356033E02A4D284E35602FE01F4D32
:1011A0002D1D2D68C5F380541C4D2D1D2D6805F097
:1011B0003F0154B1224DB5FBF1F5184E361D36688E
:1011C000C6F3881605FB06F209E01B4DB5FBF1F5E9
:1011D000124E361D3668C6F3881605FB06F20F4D13
:1011E0002D1D2D68C5F301456D1C6B00B2FBF3F599
:1011F000124E356003E0104D104E356000BF00BF49
:10120000064D08352D68C5F303150E4E705D0B4D68
:101210002D68C540094E356070BD000000380240A1
:101220000070004008544007003C024088ED00E098
:10123000FFFFF6FE103000240024F40050020020CE
:1012400000127A00540200201CB50121102004F085
:10125000B3FF0F20009001208DF8040000208DF8CE
:10126000060003208DF8050001208DF8070069466F
:10127000034804F015FC0F21014804F08FFC1CBD4D
:10128000001002401CB50121152004F095FF0F202D
:10129000009001208DF8040000208DF80600032046
:1012A0008DF8050001208DF807006946304804F0EC
:1012B000F7FB1CBD10B5044614B101202D49087080
:1012C0002C480078002837D010212B4804F04AFC25
:1012D00078B10821284804F045FC50B10421264883
:1012E00004F040FC28B10121244804F03BFC012813
:1012F00022D10A2002F0CCFA00201E4908701021E9
:101300001D4804F02FFC08B9012010BD08211A481F
:1013100004F028FC08B90220F7E70421164804F07D
:1013200021FC08B90320F0E70121144804F01AFC5D
:1013300001281BD10420E8E710210F4804F012FC1B
:10134000012813D108210C4804F00CFC01280DD110
:101350000421094804F006FC012807D101210748AF
:1013600004F000FC10B90120024908700020CCE70D
:101370000008024064020020001002400000024009
:101380000020FE490860091D0860091D0860091D4C
:101390000860FA4924310860091D0860091D0860C9
:1013A000F748F649383108600020091D0860704789
:1013B00001460020012900D011B9F24B197000E05C
:1013C000262070470146ED4A121D106820F0FF00EC
:1013D00008431060704770B5044606E0E7483430B3
:1013E000056805F0450000B100E0F7E700BF042004
:1013F00004F0E2FC88B1E448007848B10020E349F9
:1014000008700120E24908700021800705F05CFDAA
:10141000042004F0DCFC032070BD012004F0CCFCAF
:1014200020B1012004F0D3FC0120F5E7D3481030AF
:101430000068A04201D01020EEE740F2FF5004F017
:10144000C6FCCE481430006808210840C0B2E3E76B
:101450002DE9FC4107460D4600260024002000909F
:1014600001900820CB490860102048604020886027
:101470000020C8604FF480600861084604F009FC51
:101480001020FFF7A8FF044614B12046BDE8FC81F8
:10149000C14800880004BF490860372048604020E8
:1014A00088600020C8604FF480600861084604F03E
:1014B000F0FB3720FFF78FFF04460CB12046E5E72D
:1014C0004FF0FF30B5490860082048603020886040
:1014D0000220C8600020086101204861084604F02D
:1014E00004FC0020AB49086033204860402088603D
:1014F0000020C8604FF480600861084604F0C9FB12
:101500003320FFF768FF04460CB12046BEE70DE02C
:101510004FF4001004F050FC40B19848803000684F
:101520004DF82600761C022E00D307E09348343095
:10153000006840F22A6108400028E9D000BF082076
:1015400004F03AFC20B1082004F041FC04209DE79F
:10155000022004F031FC20B1022004F038FC02200B
:1015600094E7202004F028FC20B1202004F02FFC78
:1015700006208BE74FF4007004F01EFC28B14FF4F6
:10158000007004F024FC072080E740F2FF5004F0D4
:101590001EFC00980006009901F47F4140EA0120FA
:1015A000009901F47F0140EA1120009940EA11609E
:1015B000686001980006019901F47F4140EA01202A
:1015C000019901F47F0140EA1120019940EA11607C
:1015D000286020465AE77CB505460024002000908C
:1015E000019000260DB1022600E000266348143069
:1015F000006800F0007008B10E207CBD66490988C3
:1016000088B26946FFF724FF04460CB12046F4E790
:10161000019800F4802060B35F48008800045D49B1
:10162000086037204860402088600020C8604FF480
:1016300080600861084604F02CFB3720FFF7CBFEE2
:1016400004460CB12046D8E75248066006205149AE
:101650004860402088600020C8604FF480600861C6
:10166000084604F016FB0620FFF7B5FE04462046A8
:10167000C3E72520C1E770B5044600254848007837
:10168000032802D12725284670BD4548007838B187
:1016900043480078012803D041480078022819D136
:1016A000B4F5805F02D127252846EDE7E0B2FFF7C9
:1016B00092FF054675B93148001D006820F4C050FE
:1016C0002E49091D08600846006820430860084646
:1016D000006808602846D7E710B504462D48046026
:1016E00007202C494860402088600020C8604FF4E3
:1016F00080600861084604F0CCFA0720FFF76BFE13
:1017000010BDF0B5014600200022254B1B7881F862
:101710005630214B1B88A1F85430224B1B681A0EFF
:1017200093090B70C2F383034B7002F003038B70B9
:101730001C4B1B68C3F30742CA701A4B1B88C3F3C8
:1017400007220A71174B1A784A715B681A0E130147
:10175000CB80144B5B68C3F30742CB8843EA121378
:10176000CB8002F00F030B720E4B9B88C3F3072252
:10177000D3094B72C2F380138B7215E0002C014029
:10178000FF07C000700200201C0200201902002088
:101790001B020020900B00206C020020A40B0020F4
:1017A00068020020BC0B0020C2F34013CB72C2F3CE
:1017B00000130B7300234B73FE4B1B783BB1FD4BA7
:1017C0001B78012B03D0FB4B1B78032B4FD19307C6
:1017D0001B0D0B61F84B1A790B6943EA82030B610D
:1017E000F54B9B681A0E0B6943EA92130B61C2F327
:1017F000C2030B7502F007034B75EF4B9B68C3F3F5
:10180000074253098B75C2F38203CB7593075B0FB5
:101810000B76E94B1B89C3F307220B7E43EAD213F5
:101820000B760B695B1C0024C1E912340B7E9B1CF8
:10183000012404FA03F3DC17D1E91256A5FB037C5B
:1018400006FB03C305FB0433C1E912730C7A0123C1
:10185000A3400B650024D1E912650B6DA6FB037C48
:1018600005FB03C306FB0433C1E912732EE0D14B21
:101870001B78022B2AD1D04B1A7993069B0A0B6155
:10188000CD4B9B681A0E0B6943EA02230B61CA4BCE
:101890009B68C3F307420B6913430B61C64B1B895B
:1018A000C3F307220B695B1C4FF40074A3FB0446CF
:1018B0004FF480630025A4FB037C06FB03C304FBF9
:1018C0000533C1E912734FF400730B65C2F3801343
:1018D00001F8193F93065B0E4B70B74B1A7A4B78A1
:1018E00043EAD2134B7002F07F038B70B24BDB687C
:1018F0001A0ED309CB70C2F341130B71C2F38203EA
:101900004B7193071B0F8B71AB4BDB68C3F3074223
:101910008B7943EA92138B71C2F34013CB7100238E
:101920000B7202F001034B72A34B9B89C3F3072296
:10193000D3098B72C2F38013CB72C2F340130B73C3
:10194000C2F300134B73C2F381038B7302F00303E2
:10195000CB73994B1A7B53080B7401234B74974B31
:101960001B681A0ECA741939944B1B68C3F30742DB
:101970001402CC85914B1B88C3F30722CB8D1343F4
:10198000CB858E4B1A7814060C635B681A0E0B6BB2
:1019900043EA02440C63894B5B68C3F307420B6B59
:1019A00043EA02240C63854B9B88C3F307220B6B2D
:1019B00013430B63814B1A7934235A547F4B9B6832
:1019C0001A0E35235A547D4B9B68C3F30742140605
:1019D0008C637A4B1B89C3F307228B6B43EA024467
:1019E0008C63764B1A7A8B6B43EA02248C63734BBD
:1019F000DB681A0E8B6B13438B63704BDB68C3F38E
:101A000007423C235B5C43EA12143C235C541307FB
:101A10001C0DCC87694B9B89C3F30722CB8F1343E3
:101A2000CB87664B1A7B540840235C540124412326
:101A30005C54F0BD70B500264FF4803505E0604879
:101A4000046804F0450000B103E0281EA5F101057B
:101A5000F5D100BF15B104F0040028B1032604201D
:101A600004F0B5F9304670BD012004F0A5F918B1B5
:101A70000126012004F0ABF940F2FF5004F0A7F971
:101A80003046F0E72DE9F04105460E464FF00008DC
:101A900005E04B48076807F0450000B100E0F8E7B3
:101AA00000BF042004F088F928B1042004F08FF965
:101AB0000320BDE8F081012004F07EF920B101206F
:101AC00004F085F90120F4E73D4824380068A84275
:101AD00001D01020EDE740F2FF5004F078F93848CB
:101AE0002038046804F4604018B9200C3080404667
:101AF000DFE704F4005008B11320DAE704F4804073
:101B000008B11020D5E704F4004008B10F20D0E759
:101B10004046CEE738B500240120009004F0B3F829
:101B200010B92524204638BD22480078042825D045
:101B300000202449086002204860C02088600020FE
:101B4000C8604FF480600861084604F0A2F8FFF70F
:101B500071FF04460CB12046E5E7194820380068BB
:101B60001649086016481C38006848601448183840
:101B700000688860124814380068C8600D48007812
:101B800058B10C480078012807D00A480078062888
:101B900003D008480078022821D1002009490860B4
:101BA00003204860402088600020C8604FF48060B7
:101BB000086109E068020020BC0B0020CC0B00206B
:101BC000342C0140900B0020084604F062F869466E
:101BD0000320FFF757FF04460CB12046A3E7FE4859
:101BE0000078032816D1BDF800000004FB49086006
:101BF00003204860402088600020C8604FF4806067
:101C00000861084604F045F8FFF714FF04460CB1DC
:101C1000204688E7F048007804282AD0BDF8000064
:101C2000EF490860BDF800000004EC490860092095
:101C30004860C02088600020C8604FF48060086160
:101C4000084604F026F8FFF7F5FE04460CB12046DE
:101C500069E7E4480068E4490860E248001D00685C
:101C60004860E048083000688860DE480C30006852
:101C7000C860002057E710B506E0DA482030046855
:101C800004F0450000B100E0F7E700BF042004F0D5
:101C900093F820B1042004F09AF8032010BD40F21C
:101CA000FF5004F094F80020F8E770B500264FF4D8
:101CB000803506E0CB482030046804F0450000B1D0
:101CC00003E0281EA5F10105F4D100BF15B104F011
:101CD000040028B10326042004F079F8304670BDD2
:101CE00004F0400018B10026402004F070F830469F
:101CF000F5E770B500254FF4803404E0802004F04F
:101D00005BF800B103E0201EA4F10104F6D100BF8E
:101D10000CB9032070BD40F2FF5004F058F828467B
:101D2000F8E72DE9F0470027002400260025A0460B
:101D3000A1467620AD49087500200860486088609B
:101D4000C8600861084603F07AFF032003F097FF9C
:101D5000A4481038006840F48070A2491039086027
:101D600000BF12E000209D49086048608860C8609C
:101D70004FF480600861084603F08BFFFFF7B9FF5E
:101D8000044604B903E0781CC7B24A2FEADB00BF5F
:101D900014B12046BDE8F0874FF4D5708F49086034
:101DA00008204860402088600020C8604FF48060B0
:101DB0000861084603F06DFFFFF777FF044624B97A
:101DC0000120854908704FF0804900208349086050
:101DD00037204860402088600020C8604FF4806051
:101DE0000861084603F055FF3720FFF7F4FA044670
:101DF000002C4BD134E0002078490860372048603F
:101E0000402088600020C8604FF480600861084668
:101E100003F03FFF3720FFF7DEFA04460CB12046FF
:101E2000B8E7734849EA00006C4908602920486017
:101E3000402088600020C8604FF480600861084638
:101E400003F027FFFFF717FF04460CB12046A1E778
:101E500064480668012080EAD67080F001086D1C95
:101E6000B8F1000F03D14FF6FF708542C3D34FF690
:101E7000FF70854202D31B2420468BE706F080408A
:101E8000061E32D00220544908702EE01CE059484A
:101E90005249086001204860402088600020C860E6
:101EA0004FF480600861084603F0F3FEFFF7E3FE9D
:101EB00004460CB120466DE74A480668012080EAD6
:101EC000D67080F001086D1CB8F1000F03D14FF6F9
:101ED000FF708542DBD34FF6FF70854202D31B248F
:101EE000204657E703203C490870204652E73EB59C
:101EF000002400250121404804F05EF90121C802B8
:101F000004F0B4F90121C80204F005FA4FF4F850C6
:101F1000019002208DF808008DF8090000208DF84E
:101F20000A0001208DF80B0001A9344803F0B8FD28
:101F30000420019001A9324803F0B2FD0C220821CF
:101F40002E4803F038FE0C2209212C4803F033FE02
:101F50000C220A21294803F02EFE0C220B212748CF
:101F600003F029FE0C221146244803F024FE0C2223
:101F70000221234803F01FFE00214FF4006004F00B
:101F8000CAF9FFF7FDF931208DF8000000208DF827
:101F900001008DF8020001208DF80300684603F06F
:101FA0008EFCFFF7BEFE044614B9FFF7B3FD0446EE
:101FB0001CB91448FFF7A5FB044634B91149B1F820
:101FC00054100804FFF788FB044624B94FF400605E
:101FD000FFF751FB044617E068020020900B002039
:101FE0006C020020142C0140BC0B0020780B002058
:101FF000000010800080FF800C00400000080240BC
:10200000000C0240E00B00201CB1FE4800780328C1
:1020100012D1FD4890F8560020B1FB4890F85600C8
:10202000012801D1022500E000252846FFF7CAF962
:102030000020FFF7BDF9044620463EBD10B5002044
:1020400003F01DFE002010BD70B590B004460E4692
:10205000154600BFED4804F056FD0028FAD1EB48C4
:1020600004F028FC4FF000600190E94802900394CE
:1020700004950020059006904FF480600790800042
:1020800008908000099000200A904FF440300B9097
:1020900004200C9003200D904FF400000E9080104F
:1020A0000F9001A9D94804F0A7FC2021D74804F0DB
:1020B000F3FC0121D54804F0D9FC10B070BD0146F5
:1020C000002002E04910421CD0B20129FAD1704729
:1020D0002DE9F84F8146174698460A9C4FF0000AB2
:1020E000D3464D464FF0FF36B9F1000F02D12620FE
:1020F000BDE8F88F0020C64954390860C14800780F
:10210000022805D10402780A40EAC8574FEA682835
:102110000020C04988604860401E08600120486176
:102120000020C8600861084603F0DFFDB8486C383D
:10213000006800F0007008B10E20D9E7002C21DD06
:10214000B4F5006F1EDC601E2040D8B92046FFF7B2
:10215000B6FF0090B04804601020AF4948604020AE
:1021600088600020C8604FF480600861084603F072
:1021700090FD1020FFF72FF98246BAF1000F03D02F
:102180005046B5E72620B3E700980001A1498860D2
:10219000084644604FF0FF3008600120486102208B
:1021A000C86000200861084603F09FFD9A48076058
:1021B000112099494860402088600020C8604FF491
:1021C00080600861084603F064FD1120FFF703F901
:1021D0008246BAF1000F01D0504689E78F48007857
:1021E00000285AD1FEF749F817E04FF4004003F0F9
:1021F000E3FD70B14FF0000B05E08548006845F83D
:102200002B000BF1010BBBF1080FF6D32035844EE8
:1022100003E00EB904206BE7761E7D484C38006859
:1022200040F22A6108400028DFD0082003F0C4FDF6
:1022300020B1082003F0CBFD042059E7022003F071
:10224000BBFD20B1022003F0C2FD022050E7202098
:1022500003F0B2FD20B1202003F0B9FD062047E7CE
:102260004FF4007003F0A8FD28B14FF4007003F0A4
:10227000AEFD07203CE703E06548006828602D1D9F
:102280004FF4001003F098FD0028F5D1FDF7F7FF9B
:1022900040F2FF5003F09BFD39E0604800780128D0
:1022A00035D100205F4908705F4908705F490870A8
:1022B00057484438006840F22A31084354494439A9
:1022C000086053485438006840F0080050495439B9
:1022D0000860002221464846FFF7B6FE00E0761E61
:1022E0004A485838006800F0006038B94F48007814
:1022F00020B94C48007808B9002EF0D10EB904205E
:10230000F6E64848007810B1464890F800A05046DC
:10231000EEE62DE9FF5F17469846DDE90E464FF0E1
:102320000009CA464FF0FF35414900980860002077
:1023300037495439086033480078022805D104022F
:10234000780A40EAC8574FEA682800203149886077
:102350004860401E0860012048610020C860086194
:10236000084603F0C2FC2A486C38006800F0007090
:1023700018B10E2004B0BDE8F09F002C21DDB4F5AB
:10238000006F1EDC601E2040D8B92046FFF797FE84
:1023900083462148046010201F494860402088601F
:1023A0000020C8604FF480600861084603F071FCAB
:1023B0001020FFF710F88146B9F1000F03D048460E
:1023C000D8E72620D6E7012E7DD906FB04F0B0F130
:1023D000007F01D32620CDE74FEA0B100D4988601E
:1023E00006FB04F048604FF0FF30086001204861B0
:1023F0000220C86000200861084603F076FC064809
:10240000076017E068020020E00B002058640240DB
:10241000802C0140A40B0020900B002070020020B3
:10242000FFFF7F0072020020710200207302002073
:10243000740200201220FA49486040208860002081
:10244000C8604FF480600861084603F022FC122047
:10245000FEF7C1FF8146B9F1000F01D0484689E778
:10246000F048007800287DD1FDF707FF1DE04FF40C
:10247000004003F0A1FCA0B14FF0000A07E0EA48D9
:102480000068EA49096841F82A000AF1010ABAF12C
:10249000080FF4D3E54800682030E4490860E44DB3
:1024A00003E00DB9042065E76D1EDF484C38006875
:1024B00040F22A3108400028D9D0082003F07CFCE3
:1024C00030B1082000E0A0E003F081FC042051E7D7
:1024D000022003F071FC20B1022003F078FC0220FE
:1024E00048E7202003F068FC20B1202003F06FFCB7
:1024F00006203FE74FF4007003F05EFC28B14FF474
:10250000007003F064FC072034E709E0C648006867
:10251000C64909680860C5480068001DC3490860CD
:102520004FF4001003F048FC0028EFD14FF4807006
:1025300003F042FC20B3BF48007838B1BD480078B2
:10254000012803D0BB480078022819D10020B449E3
:1025500008600C204860402088600020C8604FF46C
:10256000806000E013E00861084603F092FB0C2055
:10257000FEF731FF8146B9F1000F01D04846F9E678
:10258000FDF77DFE40F2FF5003F021FC3DE0A54841
:102590000078012839D10020A74908700120A749F7
:1025A00008700020A64908709F484438006840F22F
:1025B0002A3108439C49443908609B4854380068D4
:1025C00040F0080098495439086006FB04F10022E5
:1025D0000098FFF739FD00E06D1E9A48006800F092
:1025E000006008B9002DF7D10DB90420C2E600BF84
:1025F0009348007818B9904800780028F8D08E48A1
:10260000007810B18C4890F800904846B2E61CB5AE
:1026100004460020019000908B4800880004804907
:1026200008600D204860402088600020C8604FF49A
:1026300080600861084603F02CFB7B484C3800683A
:10264000009003E078484C3800680090009800F053
:1026500045000028F6D0012003F0AEFB20B1012098
:1026600003F0B5FB01201CBD042003F0A5FB20B145
:10267000042003F0ACFB0320F5E76B4870380068DA
:102680000D2801D01020EEE740F2FF5003F09FFB31
:1026900065486C38006801900198C0F343202070B1
:1026A0000020E0E72DE9FF5F86B017469846149DAD
:1026B0000026002005900490002481460390824665
:1026C00002900195DDF818B0DDF818B0BBF1000FED
:1026D00003D126200AB0BDE8F09F002052495439AA
:1026E00008605A4988604860401E086001204861BF
:1026F0000020C8600861084603F0F7FA4A486C38C1
:10270000006800F0007008B10E20E3E74948007847
:10271000022805D10502780A40EAC8574FEA68281E
:10272000002D1FDDB5F5006F1CDC681E2840C8B900
:102730002846FFF7C4FC0590394805601020384949
:102740004860402088600020C8604FF480600861C5
:10275000084603F09EFA1020FEF73DFE06461EB125
:102760003046B7E72620B5E73748008800042C49F3
:1027700008600D204860402088600020C8604FF449
:1027800080600861084603F084FA0D20FEF723FEFE
:1027900006460EB130469DE723486C38006803902A
:1027A0004FF0FF341CE0641E2748008800041C49D9
:1027B00008600D204860402088600020C8604FF409
:1027C00080600861084603F064FA0D20FEF703FEFE
:1027D00006460EB130467DE713486C38006803901A
:1027E000039800F4807008B9002CDCD10CB92920C2
:1027F00070E70B480760182009494860402088604E
:102800000020C8604FF480600861084603F041FA78
:102810001820FEF7E0FD0646D6B130465AE7000024
:10282000900B002070020020802C014074020020D8
:10283000FFFF7F006802002072020020710200206A
:1028400073020020006402406C020020A40B0020F0
:102850000020F849087005980001F749886008468B
:1028600045604FF0FF300860012048610020C860DB
:102870000861084603F039FA4FF0FF34EF4800785A
:1028800000287CD1FDF7F9FC43E04FF4804003F0D1
:1028900093FAC8B30198A0EB0900202821D201982F
:1028A000A0EB090000F0030020B90198A0EB09009B
:1028B000800804E00198A0EB09008008401C029009
:1028C0004FF0000A09E0DE49DBF8000008600AF179
:1028D000010A0BF1040B09F1040902988245F2D3B5
:1028E0000FE04FF0000A05E05BF82A00D4490860C9
:1028F0000AF1010ABAF1080FF6D30BF1200B09F126
:1029000020096FF0404404E0FFE70CB90420E1E641
:10291000641ECB484C38006840F21A610840002819
:10292000B3D0082003F048FA20B1082003F04FFA92
:102930000420CFE6022003F03FFA20B1022003F08A
:1029400046FA0220C6E6102003F036FA20B1102025
:1029500003F03DFA0520BDE64FF4007003F02CFAB9
:1029600030B14FF4007003F032FA0720B2E606E00F
:10297000FDF785FC40F2FF5003F029FA43E0AF4831
:10298000007801283FD10020AE490870A94908709D
:10299000AD490870AA484438006840F21A3108432B
:1029A000A74944390860402229460698FFF74CFBA6
:1029B000A3485438006840F00800A1495439086021
:1029C00000E0641EA148006800F0006008B9002C17
:1029D000F7D11CB9FFF78BFA04207BE64FF0FF34E8
:1029E00000E0641E9848007820B99648007808B93D
:1029F000002CF6D10CB904206CE69248007810B196
:102A00009048007866E640F2FF5003F0E0F904A831
:102A1000FFF7FDFD064603E004A8FFF7F8FD0646B4
:102A20003EB99DF810000728F6D09DF81000062842
:102A3000F2D030464EE62DE9FF5F84B0DDE9124763
:102A400000260020039002900025804681460190D8
:102A500007FB04FBDDF810A0DDF810A0BAF1000FB1
:102A600003D1262008B0BDE8F09F002074495439F6
:102A70000860714988604860401E08600120486114
:102A80000020C8600861084603F02FF96C486C38D4
:102A9000006800F0007008B10E20E3E76C48007891
:102AA000022808D10402DDE90601400A40EAC150CB
:102AB0004912CDE90601002C1FDDB4F5006F1CDCC6
:102AC000601E2040C8B92046FFF7F9FA039061481C
:102AD000046010205F494860402088600020C86082
:102AE0004FF480600861084603F0D3F81020FEF729
:102AF00072FC06461EB13046B4E72620B2E7012F2D
:102B00006FD907FB04F0B0F1007F01D32620A9E7BD
:102B10004F48007838B14E480078012803D04C481F
:102B2000007802282DD14C480088000449490860EB
:102B300037204860402088600020C8604FF48060E3
:102B40000861084603F0A5F83720FEF744FC064666
:102B50000EB1304686E73F48076017203D49486080
:102B6000402088600020C8604FF4806008610846FB
:102B700003F08FF81720FEF72EFC06460EB1304604
:102B800070E7344906980860192048604020886042
:102B90000020C8604FF480600861084603F079F8AF
:102BA0001920FEF718FC06460EB130465AE7039886
:102BB00000012149886007FB04F048604FF0FF30B6
:102BC0000860012048610020C8600861084603F0E1
:102BD0008CF81A480078002872D1451EFDF74DFB8D
:102BE00054E0F8E04FF4804003F0E6F8B0B3ABEB0C
:102BF0000800202833D2ABEB080000F0030018B91E
:102C0000ABEB0800800803E0ABEB08008008401C39
:102C100001904FF0000909E00949DAF80000086066
:102C200009F101090AF1040A08F104080198814533
:102C3000F2D324E071020020A40B002070020020D7
:102C4000802C0140720200207302002000640240C8
:102C500068020020900B00206C02002012E04FF070
:102C6000000905E05AF82900F849086009F101094E
:102C7000B9F1080FF6D30AF1200A08F120086FF025
:102C8000404503E00DB90420ECE66D1EEF484C38DA
:102C9000006840F21A3108400028A3D0082003F051
:102CA0008BF820B1082003F092F80420DAE6022025
:102CB00003F082F828B1022003F089F80220D1E65F
:102CC00040E0102003F078F820B1102003F07FF8E6
:102CD0000520C7E64FF4007003F06EF828B14FF4FA
:102CE000007003F074F80720BCE64FF4807003F026
:102CF00063F800B3D648007838B1D5480078012889
:102D000003D0D3480078022815D10020D1490860AB
:102D10000C204860402088600020C8604FF480602C
:102D20000861084602F0B5FF0C20FEF754FB06468A
:102D30000EB1304696E6FDF7A2FA40F2FF5003F0DE
:102D400046F848E0C4480078012844D10020C3492F
:102D500008700120C24908700020C2490870BB48B1
:102D60004438006840F21A310843B84944390860D1
:102D700007FB04F140220498FFF766F9B348543882
:102D8000006840F00800B149543908604FF0FF3541
:102D900000E06D1EB448006800F0006008B9002D26
:102DA000F7D11DB9FFF7A3F804205BE64FF0FF351C
:102DB00000E06D1EAB48007820B9A848007808B93B
:102DC000002DF6D10DB904204CE6A448007810B1CE
:102DD000A248007846E640F2FF5002F0F8FF02A851
:102DE000FFF715FC064603E002A8FFF710FC0646B5
:102DF0003EB99DF808000728F6D09DF8080006287F
:102E0000F2D030462EE610B54FF4807002F0D4FFB9
:102E100088B393480078012814D100208D490860B8
:102E20000C204860402088600020C8604FF480601B
:102E30000861084602F02DFF0C20FEF7CCFA874906
:102E4000087002E000208549087080484838006812
:102E500040F480707D4948390860081D00684CF2D4
:102E60003A31884379494439086001207D49087026
:102E70007A48007810BDFFE7022002F09DFF78B18C
:102E8000022002F0A4FF7148443800684CF23A3145
:102E900088436E4944390860022070490870E9E7A8
:102EA000082002F089FF78B1082002F090FF6748FF
:102EB000443800684CF23A31884364494439086028
:102EC000042066490870D5E7202002F075FF78B12C
:102ED000202002F07CFF5D48443800684CF23A3113
:102EE00088435A494439086006205C490870C1E7A4
:102EF000102002F061FF78B1102002F068FF534803
:102F0000443800684CF23A318843504944390860EB
:102F1000052052490870ADE74FF4007002F04CFFF5
:102F200080B14FF4007002F052FF48484438006806
:102F30004CF23A31884345494439086007204749F3
:102F4000087097E7002095E710B5FFF75CFF10BD0C
:102F500070B50446002514B92625284670BD43489F
:102F6000008800043B4908600D20486040208860CC
:102F70000020C8604FF480600861084602F089FEB6
:102F80000D20FEF728FA05460DB12846E6E72F4842
:102F90006C38006820602846E0E708B50020009003
:102FA0006846FFF7D5FF08B1FF2008BD0098C0F3C1
:102FB0004320FAE72DE9FE4F83460E469146002056
:102FC0000290002534462248007818B1680240EA91
:102FD000D45564020BF00300F0B14FF0000A18E082
:102FE0004FF4007000904FEA4A20071945EBE07358
:102FF0003A461F48FFF76CF802904FF400721C49E4
:10300000584608F008FA0BF5007B0AF1010000F0C1
:10301000FF0ACA45E4DB16E0B9F1010F09D14FF40C
:10302000007022462B4600905846FFF751F8029058
:1030300009E04FF4007022462B46CDE900095846BE
:10304000FFF767F902900298BDE8FE8F802C0140DF
:1030500068020020900B0020700200207202002005
:103060007102002073020020006402406C02002004
:10307000380C00202DE9FE4F064689469246002076
:10308000029000254C462148007818B1680240EAB9
:10309000D455640206F00300F0B14FF0000B18E0C5
:1030A0004FF4007231461A4808F0B5F94FF4007039
:1030B00000904FEA4B20071945EBE0733A4614485D
:1030C000FFF7F0FA029006F500760BF1010000F030
:1030D000FF0BD345E4DB16E0BAF1010F09D14FF441
:1030E000007022462B4600903046FFF7DBFA029034
:1030F00009E04FF4007022462B46CDE9000A304625
:10310000FFF799FC02900298BDE8FE8F680200204C
:10311000380C002008B54FF4A06002F0CBFB1C2057
:103120008DF8000002208DF8010003208DF80200C8
:1031300001208DF80300684602F0C1FB25208DF8C0
:10314000000001208DF8010000208DF80200012010
:103150008DF80300684602F0B2FB26208DF80000CF
:1031600001208DF801008DF802008DF803006846FB
:1031700002F0A5FB27208DF8000001208DF801004A
:1031800002208DF8020001208DF80300684602F04D
:1031900096FB08BD0EB50121084603F056F84FF422
:1031A000FA600190A720ADF800000020ADF80800FB
:1031B000ADF8020069464FF0804003F0FCFD0022AC
:1031C0000121880704F098FA0121880703F07CFEAA
:1031D0000EBD3EB505460C460121084603F035F804
:1031E0000195ADF800400020ADF80200ADF80800F0
:1031F00069464FF0804003F0DEFD01221146900742
:1032000004F07AFA0121880703F05EFE3EBD70B536
:1032100005460C4645F2555004F072FB284604F072
:1032200072FB204604F072FB04F073FB04F076FBA3
:1032300070BD10B504F06DFB10BD00001CB5012180
:10324000102002F0B9FF4FF4D040009001208DF81B
:10325000040000208DF8060002208DF80500694664
:10326000FC4802F01DFC1CBD1CB54FF4D040009082
:1032700001208DF8040000208DF8060002208DF852
:1032800005006946F34802F00BFC1CBD1CB54FF469
:103290000050009000208DF8040002208DF80500F9
:1032A00001208DF807006946EA4802F0F9FB1CBDD1
:1032B00001780A2291FBF2F302FB131102780A2330
:1032C00092FBF3F201EB0211017041780A2291FBAB
:1032D000F2F302FB131142780A2392FBF3F201EBA3
:1032E0000211417081780A2291FBF2F302FB131163
:1032F00082780A2392FBF3F201EB02118170C1780C
:103300000A2291FBF2F302FB1311C2780A2392FB0B
:10331000F3F201EB0211C17001790A2291FBF2F381
:1033200002FB131102790A2392FBF3F201EB021163
:10333000017141790A2291FBF2F302FB13114279E8
:103340000A2392FBF3F201EB0211417181790A2207
:1033500091FBF2F302FB131182790A2392FBF3F241
:1033600001EB02118171704710B50178CB1701EBA9
:1033700013731B11A1EB03130A46CC1701EB147452
:10338000241104EB840403EB440303704178CB174E
:1033900001EB13731B11A1EB03130A46CC1701EBCE
:1033A0001474241104EB840403EB44034370817808
:1033B000CB1701EB13731B11A1EB03130A46CC17B8
:1033C00001EB1474241104EB840403EB44038370B5
:1033D000C178CB1701EB13731B11A1EB03130A4642
:1033E000CC1701EB1474241104EB840403EB4403A5
:1033F000C3700179CB1701EB13731B11A1EB0313FE
:103400000A46CC1701EB1474241104EB840403EB7B
:10341000440303714179CB1701EB13731B11A1EB2B
:1034200003130A46CC1701EB1474241104EB840433
:1034300003EB440343718179CB1701EB13731B1129
:10344000A1EB03130A46CC1701EB1474241104EB0F
:10345000840403EB4403837110BD70B504460E462B
:10346000FFF702FF4FF400617A4802F095FB04F089
:10347000FE04002520E004F0010028B14FF40051C3
:10348000744802F089FB04E04FF40051714802F0E7
:1034900085FB052000F0B4F94FF480416D4802F03F
:1034A0007BFB4FF480416B4802F078FB052000F075
:1034B000A7F96410681CC5B2082DDCDB002520E0EC
:1034C00006F0010028B14FF40051624802F064FB9D
:1034D00004E04FF400515F4802F060FB052000F06B
:1034E0008FF94FF480415B4802F056FB4FF4804166
:1034F000584802F053FB052000F082F97610681C52
:10350000C5B2082DDCDB4FF40061524802F046FBE7
:1035100070BD70B50446FFF7A7FE4FF400614D483B
:1035200002F03AFB44F00104002620E004F0010020
:1035300028B14FF40051474802F02EFB04E04FF44D
:103540000051444802F02AFB052000F059F94FF4DD
:103550008041404802F020FB4FF480413D4802F09A
:103560001DFB052000F04CF96410701CC6B2082E3B
:10357000DCDBFFF78BFE082000F042F900261DE09F
:103580006D104FF40051334802F0ECFA10B145F0E1
:10359000800501E005F07F05052000F031F94FF4CA
:1035A00080412C4802F0F8FA4FF48041294802F09B
:1035B000F5FA052000F024F9701CC6B2082EDFDBF6
:1035C0004FF40061234802F0E9FA284670BD10B5B7
:1035D0002148FFF76DFE0F201F4908700A20487030
:1035E000162088700520C870082008714A2048718C
:1035F0000020887100218E20FFF72FFF80210846D0
:10360000FFF72BFF144801788C20FFF726FF1248A4
:1036100041788820FFF721FF0F4881788620FFF747
:103620001CFF0D48C1788A20FFF717FF0A4801796F
:103630008420FFF712FF084841798220FFF70DFF31
:10364000054881798020FFF708FF80218E20FFF751
:1036500004FF10BD001002407802002010B58C203D
:10366000FFF757FF574908708820FFF752FF554969
:1036700048708620FFF74DFF524988708420FFF77D
:1036800048FF504908718220FFF743FF4D494871B8
:103690008020FFF73EFF4B4988718A20FFF739FFF2
:1036A0004849C8700846FFF75FFE10BD10B5FFF728
:1036B000C5FD4FF40061444802F070FA4FF48041B8
:1036C000414802F06BFA00218020FFF7C6FE10BDD2
:1036D000F0B599B00246144600200023002C00DA11
:1036E000524200BF0A2592FBF5F605FB1625303540
:1036F000EDB20DF800500A2592FBF5F2401C002AAD
:10370000F0DC002C04DA2D270546401C0DF805706E
:1037100000250DF80050401E04E01DF80050CD5467
:103720005B1C401E0028F8DA0025CD5419B0F0BD0E
:10373000F8B506460F461446224948786946FFF711
:10374000C7FF002505E01DF8050004F8010B681C03
:10375000C5B2022DF7DB5F2004F8010B1949887808
:103760006946FFF7B5FF002505E01DF8050004F8E0
:10377000010B681CC5B2022DF7DB5F2004F8010BBA
:10378000104908796946FFF7A3FF002505E01DF8F9
:10379000050004F8010B681CC5B2022DF7DB5F20A1
:1037A00004F8010B074948796946FFF791FF0025A6
:1037B00005E01DF8050004F8010B681CC5B2022DD8
:1037C000F7DBF8BD7F0200200010024010B5044670
:1037D0006FF0040002F0C0F8E11704EB5171C1F37F
:1037E000C701394A11701046007800EB4001C1EB67
:1037F000C0104FF6FF7101EAC0003449088010BDC7
:103800000146314A12784A434FF0E0235A610022C0
:103810009A611A46126942F001021A6100BF4FF024
:10382000E022106900F001021AB100F48032002A8F
:10383000F5D04FF0E022126922F001024FF0E023B0
:103840001A6100229A6170470146204A12884A4351
:103850004FF0E0235A6100229A611A46126942F041
:1038600001021A6100BF4FF0E022106900F001026E
:103870001AB100F48032002AF5D04FF0E02212692C
:1038800022F001024FF0E0231A6100229A61704792
:1038900070B504464FF4077094FBF0F0C6B24FF4D5
:1038A000077094FBF0F100FB114085B205E04FF486
:1038B0000770FFF7C9FF701EC6B2002EF7D115B111
:1038C0002846FFF7C1FF70BD860200208802002055
:1038D00000BF704700BFF84A128802F04002002A79
:1038E000F9D0C2B2F44B9A80704710B588B0044644
:1038F0000121084602F060FC0121102002F0B6FC14
:1039000007220921ED4802F056F907220A21EB4867
:1039100002F051F94FF4C060069002208DF81C00AF
:103920008DF81D0000208DF81E0001208DF81F006D
:1039300006A9E24802F0B4F802940020ADF80C00A9
:10394000ADF80E00ADF81000ADF814000C20ADF885
:10395000120002A9D84802F0EAFD0121D64802F07F
:103960006EFE4021D44802F052FF012240F2255160
:10397000D14802F01AFF25208DF8040003208DF8AD
:1039800005008DF8060001208DF8070001A801F060
:1039900096FF08B010BD30B50023002204E0845C1F
:1039A0001C44E3B2541CE2B24C1E9442F7DC4418AF
:1039B00014F8014C9C4200D030BD0478AA2C02D1EE
:1039C0004478AF2C00D0F7E78478012C23D1047918
:1039D000457945EA0424BA4D2C708479C57945EAC5
:1039E0000424B74D6C70047A457A45EA0424B44D3A
:1039F000AC70847AC57A45EA0424B14D2C71047BFD
:103A0000457B45EA0424AE4D6C71847BC57B45EA59
:103A10000424AB4DAC7100BFCEE710B50821A64819
:103A200002F0E8FE012807D10821A34802F0EFFECA
:103A3000A14802F033FE75E040F225519E4802F0A5
:103A4000EFFE00286ED09C4802F028FEC4B29D48CC
:103A5000007838B9AA2C05D101209A4908709A48F3
:103A600004705FE097480078012807D1AF2C05D19A
:103A70000220944908709448447053E091480078BB
:103A8000022809D1002C07DDF12C05DA03208D492D
:103A900008708D48847045E08A48007803280CD16E
:103AA000322C0ADA0420874908708748C470874896
:103AB000047000208649087034E0824800780428A9
:103AC00019D182480078002815DD80480078401E12
:103AD0007E4908707E4800787D490978491C7C4AF7
:103AE0001170001D78490C5478480078D0B9052031
:103AF0007449087016E07348007805280FD100203B
:103B00007049087072480078001D6F490C54704865
:103B10000078401DC1B26C48FFF73DFF02E0002075
:103B20006849087010BD10B504462146624802F08D
:103B3000B1FD00BF8021604802F05CFE0028F9D092
:103B400010BD70B504460D46002605E014F8010BC3
:103B5000FFF7E9FF701C86B2AE42F7DB70BD10B50F
:103B600086B004460121084602F026FB01214804E4
:103B700002F06BFB07220221504802F01CF80722DA
:103B800003214E4802F017F80C20049002208DF813
:103B900014008DF8150000208DF8160001208DF816
:103BA000170004A9454801F07BFF00940020ADF800
:103BB0000400ADF80600ADF80800ADF80C000C20CC
:103BC000ADF80A006946434802F0B1FC01214148C2
:103BD00002F035FD40213F4802F019FE012240F27B
:103BE00025513C4802F0E1FD06B010BD10B5044679
:103BF0002146384802F04EFD00BF8021354802F0D2
:103C0000F9FD0028F9D010BD70B504460D46002618
:103C100005E014F8010BFFF7E9FF701C86B2AE4215
:103C2000F7DB70BD01EE102AB8EEC11AB4EEE01A4F
:103C3000F1EE10FA0AD201EE102AB8EEC11AB4EE73
:103C4000C01AF1EE10FA01DD02600A607047B4EEAE
:103C5000C10AF1EE10FA08D2B4EEE00AF1EE10FA61
:103C600003DD80ED000A81ED000A70472DE9F04187
:103C70002DED048B04460D460027002604E0A05DD0
:103C80003844C7B2701CC6B2681EB042F7DC601977
:103C900010F8010CB84203D0BDEC048BBDE8F081F4
:103CA0002078AA2802D16078AF2815D008F1010049
:103CB00000F0FF08F0E700000010014000000240A3
:103CC0007F02002098020020000F00209C020020AC
:103CD0009D02002000440040A07805287ED114F801
:103CE000040F000200B26178084300EE100AB8EE3B
:103CF000C00AF2EE040A80EE201AF0EE411A9FED9F
:103D0000FA1ADFEDFA0AB0EE610AF949F948FFF74D
:103D10009EFFA078000200B2E178084300EE100A8E
:103D2000B8EEC00AF2EE040A80EE201AF0EE411A54
:103D30009FEDED1ADFEDED0AB0EE610AEC49091FC7
:103D4000EC48001FFFF783FF2079000200B2617981
:103D5000084300EE100AB8EEC00AF2EE040A80EE44
:103D6000201AF0EE411A9FEDE01ADFEDE00AB0EE06
:103D7000610ADF49091DDF48001DFFF768FFA079D0
:103D8000000200B2E17940EA0102DFEDDB0A9FEDBB
:103D9000DB0AD7490831D7480830FFF743FF207ABC
:103DA000000200B2617A40EA0102DFEDD30A9FED22
:103DB000D30ACF490C31CF480C30FFF733FFA07A3C
:103DC000000200B2E17A40EA0102DFEDCB0A9FED8A
:103DD000CB0AC7491031C748103000E0DDE0FFF7DB
:103DE00021FF207B000200B2617B40EA0102DFED8F
:103DF000C40A9FEDC40ABE491431BE481430FFF70F
:103E000011FFA07B000200B2E17B40EA0102DFED7E
:103E1000BC0A9FEDBC0AB6491831B6481830FFF706
:103E200001FF207C000200B2617C40EA0102DFED6C
:103E3000B40A9FEDB40AAE491C31AE481C30FFF7FE
:103E4000F1FEA07C000200B2E17C40EA0102DFED5D
:103E5000AE0A9FEDAE0AA6492031A6482030FFF7F2
:103E6000E1FE207D000200B2617D40EA0102DFED4B
:103E7000A60A9FEDA60A9E4924319E482430FFF7EA
:103E8000D1FEA07D000200B2E17D40EA0102DFED3B
:103E90009E0A9FED9E0A9649283196482830FFF7E2
:103EA000C1FE207E000200B2617E40EA0102DFED29
:103EB000960A9FED960A8E492C318E482C30FFF7DA
:103EC000B1FEA07E000200B2E17E40EA0102DFED19
:103ED000900A9FED900A8649603186485430FFF77A
:103EE000A1FE207F000200B2617F40EA0102DFED07
:103EF000880A9FED880A7E4964317E485830FFF772
:103F000091FEA07F000200B2E17F40EA0102DFEDF6
:103F1000800A9FED800A7649683176485C30FFF769
:103F200081FE94F82000000200B294F8211040EACB
:103F30000102DFED770A9FED770A6D4960316D4828
:103F40006030FFF76FFE94F82200000200B294F890
:103F5000231040EA0102DFED6E0A9FED6E0A64490C
:103F6000643164486430FFF75DFE94F82400000279
:103F700000B294F8251040EA0102DFED650A9FEDDA
:103F8000650A5B4968315B486830FFF74BFE94F87F
:103F90002600241F604908705EE2A078012833D112
:103FA0002079000200B26179084300EE100AB8EEF1
:103FB000C00AF2EE040A80EE201A4E48001F80ED7F
:103FC0001F1AA079000200B2E179084300EE100A3E
:103FD000B8EEC00AF2EE040A80EE201A4548001F2F
:103FE00080ED201A207A000200B2617A084300EEC8
:103FF000100AB8EEC00AF2EE040A80EE201A3D481C
:10400000001F80ED211A27E2A07802286AD12079CA
:10401000000200B2617908433649091FC1F89C00CB
:10402000A079000201B2E07901433248001FC0F8D4
:10403000A010207A000200B2617A08432D49091FBE
:10404000C1F84C01A07A000201B2E07A014329488C
:10405000001FC0F85011207B000200B2617B0843B2
:104060002449091FC1F8AC00A07B000201B2E07B2B
:1040700001432048001FC0F8B010207C000200B2AD
:10408000617C08431B49091FC1F85C01A07C000248
:1040900001B2E07C01431748001FC0F86011207D89
:1040A000000200B2617D084300EE100AB8EEC00ABB
:1040B000F2EE040A80EE201A0E48001F80ED5B1A13
:1040C000A07D000200B2E17D084300EE100AB8EEC8
:1040D000C00AF2EE040A80EE201A0648001F80EDA6
:1040E0005C1AB9E11AE0000000003443000034C358
:1040F000B8110020A40F002000008044000080C4FC
:104100000080BB450080BBC50000FA440000FAC433
:1041100000007A4400007AC419020020A078032825
:104120007ED12079000200B2617908430A2190FB18
:10413000F1F35FED090A1FED090A1A46FD49FE4831
:10414000FFF770FDA079000200B2E17908430A216F
:1041500090FBF1F35FED120A1FED120A1A46F549C2
:10416000B031F548B030FFF75DFD207A000200B2B3
:10417000617A084300EE900AF8EEE00AB0EE600AB9
:104180009FEDEE1ADFEDEE0AEA493C31EA483C3099
:10419000FFF75DFDA07A000200B2E17A084300EE6D
:1041A000100AB8EEC00AE448883880ED5D0A207B2A
:1041B000000200B2617B0843DF498839C1F8780109
:1041C000A07B000200B2E17B08430A2190FBF1F3DF
:1041D0005FED310A1FED310A1A46D649B431D6488F
:1041E000B430FFF71FFD207C000200B2617C40EA82
:1041F0000102DFEDD40A9FEDD40ACE49F831CE4852
:10420000F830FFF70FFDE07C000200B2217D08438B
:1042100000EE100AB8EEC00ACC4880ED020A00E0B9
:104220001CE0607D000200B2A17D084300EE100A90
:10423000B8EEC00AC54880ED030AE07D000200B276
:10424000617E40EA0102DFEDBF0A9FEDBF0AB94976
:10425000F431B948F430FFF7E5FC83E3A078042893
:1042600003D12079BA4908707CE3A07806287DD173
:10427000641D14F8010C000200B221780843AE4915
:104280008839C1F80C016078000201B2A0780143BE
:10429000A9488838C0F81011E078000200B22179EE
:1042A0000843A5498839C1F804016079000201B2C8
:1042B000A0790143A0488838C0F80811E0790002CD
:1042C00000B2217A08439C498839C1F8FC00607A21
:1042D000000201B2A07A014397488838C0F8001163
:1042E000E07A000200B2217B084393498839C1F883
:1042F000F400607B000201B2A07B01438E48883845
:10430000C0F8F810E07B000200B2217C084300EE08
:10431000100AB8EEC00A8F4880ED000A607C0002E7
:1043200000B2A17C084300EE100AB8EEC00A89482A
:1043300080ED010AE07C000200B2217D084300EE1E
:10434000100AB8EEC00A834880ED020A607D0002C0
:1043500000B2A17D084300EE100AB8EEC00A7D4805
:1043600080ED030AE07D000200B200E075E0217EEE
:10437000084300EE100AB8EEC00A744880ED000A47
:10438000607E000200B2A17E084300EE100AB8EE83
:10439000C00A6E4880ED010AE07E00EE100AB8EE19
:1043A000400A6D4880ED000A207F000200B2617F64
:1043B000084300EE100AB8EEC00A674880ED010A13
:1043C000A07F000200B2E17F084300EE100AB8EEC1
:1043D000C00A614880ED020AA07F000200B2E17FBE
:1043E000084300EE100AB8EEC00A5B4880ED030AED
:1043F00094F82000000200B294F82110084300EE67
:10440000100AB8EEC00A554880ED000A94F8220060
:10441000000200B294F82310084300EE100AB8EE30
:10442000C00A4E4880ED010A94F82400000200B250
:1044300094F82510084300EE100AB8EEC00A474869
:1044400080ED020A94F82600000200B294F82710CA
:10445000641F08434249086084E2A07807282DD1F0
:104460002079000200B26179084333498839C1F8E4
:10447000FC01A079000200B2E17908432E49883995
:10448000C1F80002207A000200B2617A08432A498A
:104490008839C1F80402A07A000200B2E17A084328
:1044A00025498839C1F80802207B000200B2617BEF
:1044B000084321498839C1F80C0253E2A078092841
:1044C0007ED120790006617940EA0140A17940EA75
:1044D0000120E179084318498839C1F8D401207ACC
:1044E0000006617A40EA0140A17A40EA0120E17ABF
:1044F000084311498839C1F8D801207B000200B275
:10450000627B104300EE100AB8EEC00A10EE101ADB
:10451000084608F0FBFE41EC190B9FED120B53EC23
:10452000102B08F00FFA41EC180B08F01DF90249A6
:1045300088391BE03C120020281000200000FA43BC
:104540000000FAC300401C4600000000740F002069
:1045500019020020640F0020840F0020940F002017
:10456000940200200000000000005940C1F8F4014E
:10457000A07B000200B2E27B104300EE100AB8EE0E
:10458000C00A10EE101A084608F0C0FE41EC190BE4
:104590009FEDFD0B53EC102B08F0D4F941EC180BF8
:1045A00008F0E2F8FA49C1F8F001217CF84880F8F7
:1045B000EC11617C80F8ED11A17C80F8EE1100E037
:1045C0001DE0E07C000200B2227D104300EE100AE4
:1045D000B8EEC00A10EE101A084608F097FE41EC3B
:1045E000190B9FEDE90B53EC102B08F0ABF941ECE4
:1045F000180B08F0B9F8E649C1F8F801B2E1A07863
:10460000712854D12079000200B261790843E04951
:104610000864A079000200B2E1790843DC494864EB
:10462000207A000200B2617A0843D9498864A07AEE
:10463000000200B2E17A0843D549C864207B000239
:1046400000B2617B0843D2490865A07B000200B23A
:10465000E17B0843CE494865207C000200B2617CC2
:104660000843CB498865A07C000200B2E17C084386
:10467000C749C865207D000200B2617D0843C44976
:104680000866A07D000200B2E17D0843C0490867CA
:10469000207E000200B2617E0843BD494867A07ECB
:1046A000000200B2E17E0843B94988675AE1A07868
:1046B00074287CD16079217940EA0120B449A1F8BD
:1046C0008A01E079A17940EA0121B148A0F88C1172
:1046D000607A217A40EA0121AD48A0F88E11E07A93
:1046E000A17A40EA0121AA48A0F89011607B217BC1
:1046F00040EA0121A648A0F89211E07BA17B40EAA4
:104700000121A348A0F894116079217940EA0121A0
:104710009F48A0F89611E079A17940EA01219C48D0
:10472000A0F89811607A217A40EA01219848A0F80F
:104730009A11E07AA17A40EA01219548A0F89C11EB
:10474000607B217B40EA01219148A0F89E11E07B2B
:10475000A17B40EA01218E48A0F8A011607921795F
:1047600040EA01218A48A0F8A211E079A17940EA43
:1047700001218748A0F8A411607A217A40EA01213A
:104780008348A0F8A611E07AA17A40EA0121804886
:10479000A0F8A811607B217B40EA01217C48A0F8A9
:1047A000AA11E07BA17B40EA0121794800E02CE0DE
:1047B000A0F8AC116079217940EA01217448A0F891
:1047C000AE11E079A17940EA01217148A0F8B01159
:1047D000607A217A40EA01216D48A0F8B211E07AAE
:1047E000A17A40EA01216A48A0F8B411607B217BDC
:1047F00040EA01216648A0F8B611E07BA17B40EABF
:1048000001216348A0F8B811ACE0A07874287CD1ED
:104810006079217940EA01205D49A1F88A01E079B7
:10482000A17940EA01215A48A0F88C11607A217AD6
:1048300040EA01215648A0F88E11E07AA17A40EAB8
:1048400001215348A0F89011607B217B40EA0121AF
:104850004F48A0F89211E07BA17B40EA01214C482F
:10486000A0F894116079217940EA01214848A0F824
:104870009611E079A17940EA01214548A0F8981104
:10488000607A217A40EA01214148A0F89A11E07A41
:10489000A17A40EA01213E48A0F89C11607B217B6F
:1048A00040EA01213A48A0F89E11E07BA17B40EA52
:1048B00001213748A0F8A0116079217940EA01214F
:1048C0003348A0F8A211E079A17940EA01213048EB
:1048D000A0F8A411607A217A40EA01212C48A0F8BE
:1048E000A611E07AA17A40EA01212948A0F8A8118E
:1048F000607B217B40EA01212548A0F8AA11E07BDA
:10490000A17B40EA0121224800E02BE0A0F8AC1195
:104910006079217940EA01211D48A0F8AE11E079C3
:10492000A17940EA01211A48A0F8B011607A217AF1
:1049300040EA01211648A0F8B211E07AA17A40EAD3
:1049400001211348A0F8B411607B217B40EA0121CA
:104950000F48A0F8B611E07BA17B40EA01210C488A
:10496000A0F8B81100BFFFF797B910B508210948A2
:1049700001F040FF01280FD10821064801F047FF50
:10498000044801F08BFEA2E000000000000024407B
:10499000A00F00200044004040F22551F64801F0ED
:1049A0003FFF0028EFD040F22551F34801F073FF9C
:1049B000F14801F073FEC4B2F048007838B9AA2C6F
:1049C00005D10120ED490870ED4804707FE0EB4807
:1049D0000078012807D1AF2C05D10220E7490870E3
:1049E000E748447073E0E5480078022809D1002CBC
:1049F00007DDF12C05DA0320E0490870E0488470F7
:104A000065E0DE48007803280CD1322C0ADA042055
:104A1000DA490870DA48C470DA4804700020DA49CC
:104A2000087054E0D5480078042819D1D54800789A
:104A3000002815DDD3480078401ED2490870D248BE
:104A40000078D1490978491CCF4A1170001DCC4922
:104A50000C54CC48007870BB0520C849087036E07B
:104A6000C648007805282FD10020C4490870C648E0
:104A70000078001DC2490C54C3480078401DC1B2E3
:104A8000BF48FFF7F3F8C1480078A0B9C0480178E3
:104A90000078401CBE4A1070022918DD0020114623
:104AA0000870BC48007838B10020BA4908700F215E
:104AB000B94801F071F80AE00120B64908700F21E9
:104AC000B54801F06BF802E00020AC49087010BD59
:104AD00030B50023002204E0845C1C44E3B2541C83
:104AE000E2B24C1E9442F7DC441814F8014C9C428C
:104AF00000D030BD0478AA2C02D14478AF2C00D06D
:104B0000F7E78478802C43D10479240224B24579D4
:104B10002C4300EE104AB8EEC00AA04C84ED000A07
:104B20008479240224B2C5792C4300EE104AB8EEF1
:104B3000C00A9A4C84ED010A047A240224B2457A10
:104B40002C4300EE104AB8EEC00A944C84ED020AE1
:104B5000847A2406C57A44EA0544057B44EA0524A0
:104B6000457B2C438D4D6C63847B2406C57B44EAD6
:104B70000544057C44EA0524457C2C43874DAC6301
:104B8000847C240224B2C57C2C43844DEC63F1E088
:104B90008478812C54D10479240224B245792C43A1
:104BA0007E4D2C648479240224B2C5792C437B4D3C
:104BB0006C64047A240224B2457A2C43774DAC64A9
:104BC000847A240224B2C57A2C43744DEC64047BAD
:104BD000240224B2457B2C43704D2C65847B240237
:104BE00024B2C57B2C436D4D6C65047C240224B239
:104BF000457C2C43694DAC65847C240224B2C57C81
:104C00002C43664DEC65047D240224B2457D2C4383
:104C1000624D2C66847D240224B2C57D2C435F4DF9
:104C20002C67047E240224B2457E2C435B4DAC6786
:104C3000847E240224B2C57E2C43584D6C6799E0D3
:104C40008478822C2FD10479240224B245792C4314
:104C5000524DEC678479240224B2C5792C434F4D20
:104C6000C5F88040047A240224B2457A2C434B4D87
:104C7000C5F88440847A240224B2C57A2C43474D77
:104C8000C5F88840047B240224B2457B2C43434D65
:104C9000C5F88C40847B240224B2C57B2C433F4D55
:104CA000C5F8904066E08478832C63D104792402AF
:104CB00024B245792C43394DC5F8944084792402B7
:104CC00024B2C5792C43354DC5F89840047A2402A6
:104CD00024B2457A2C43314DC5F89C40847A240295
:104CE00024B2C57A2C432D4DC5F8A040047B240284
:104CF00024B2457B2C43294DC5F8A440847B240273
:104D000024B2C57B2C43254DC5F8A840847A2406DF
:104D1000C57A44EA0544057B44EA0524457B2C43D7
:104D20001E4DC5F8AC40847B2406C57B44EA05448F
:104D3000057C44EA0524457C2C43184DC5F8B04059
:104D4000847A2406C57A44EA0544057B44EA0524AE
:104D5000457B2C43114DC5F8B440847B2406C57BAC
:104D600044EA0544057C44EA0524457C2C430B4D6C
:104D7000C5F8B84000BFBCE6004400409E020020D9
:104D8000320F0020A4020020A502002019020020FA
:104D9000A00200209F02002000100240C813002043
:104DA00010B504462146FE4801F074FC00BF4021C6
:104DB000FB4801F01FFD0028F9D010BD70B5054675
:104DC0000E46002404E0285DFFF7EAFF601C84B271
:104DD000B442F8DB70BD70B58EB000260024AA2264
:104DE0002146641C0DF80120AF222146641C0DF8F9
:104DF000012000222146641C0DF801202146641C7C
:104E00000DF8012000200D909DF835202146641CEE
:104E10000DF801209DF834202146641C0DF8012076
:104E20000D909DF835202146641C0DF801209DF859
:104E300034202046611CCCB20DF8002000200D90DB
:104E40009DF835202046611CCCB20DF800209DF85D
:104E500034202046611CCCB20DF80020201FC0B2C7
:104E60008DF80300002505E01DF805003044C6B2AA
:104E7000681CC5B2A542F7DB2046611CCCB20DF818
:104E8000006021466846FFF799FF0EB070BD10B56F
:104E900086B004460121082001F08EF90121880422
:104EA00001F0D3F907220821BE4800F084FE072252
:104EB0000921BC4800F07FFE4FF4407004900220AE
:104EC0008DF814008DF8150000208DF816000120D3
:104ED0008DF8170004A9B34800F0E2FD009400200B
:104EE000ADF80400ADF80600ADF80800ADF80C0010
:104EF0000C20ADF80A006946AB4801F018FB01210F
:104F0000A94801F09CFB4021A74801F080FC012248
:104F100040F22551A44801F048FC06B010BD10B580
:104F200004462146A04801F0B5FB00BF80219E4801
:104F300001F060FC0028F9D010BD70B504460D46A4
:104F4000002605E014F8010BFFF7E9FF701C86B29C
:104F5000AE42F7DB70BD70B50023002204E0855C33
:104F60001D44EBB2551CEAB24D1E9542F7DC4518C4
:104F700015F8015C9D4202D0651CECB270BD05784D
:104F8000AA2D02D14578AF2D02D0651CECB2F5E711
:104F90008578052D77D105792D022DB246793543D7
:104FA00000EE105AB8EEC00AF2EE040A80EE201AA3
:104FB0007E4D85ED011A85792D022DB2C6793543D6
:104FC00000EE105AB8EEC00AF2EE040A80EE201A83
:104FD000764D85ED001A057A2D022DB2467A3543BD
:104FE00000EE105AB8EEC00AF2EE040A80EE201A63
:104FF0006E4D85ED021A857A2D022DB2C67A3543A3
:105000006A4EF560057B2D022DB2467B3543674E17
:105010003561857B2D022DB2C67B3543634E7561AC
:10502000057C2D022DB2467C3543604EB561857CF2
:105030002D022DB2C67C35435C4EF561057D2D02F7
:105040002DB2467D3543594E3562857D2D022DB2F8
:10505000C67D3543554E7562057E2D022DB2467EC6
:105060003543524EB562857E2D022DB2C67E354344
:105070004E4EF562057F2D022DB2467F35434B4ED5
:1050800035635DE3FFE78578012D30D105792D0289
:105090002DB24679354300EE105AB8EEC00AF2EE52
:1050A000040A80EE201A414D85ED1F1A85792D02E4
:1050B0002DB2C679354300EE105AB8EEC00AF2EEB2
:1050C000040A80EE201A394D85ED201A057A2D024A
:1050D0002DB2467A354300EE105AB8EEC00AF2EE11
:1050E000040A80EE201A314D85ED211A28E38578D7
:1050F000022D69D105792D022DB2467935432B4E0B
:10510000C6F89C5085792D022EB2C5792E43274DC5
:10511000C5F8A060057A2D022DB2467A3543234E9C
:10512000C6F84C51857A2D022EB2C57A2E431F4DFA
:10513000C5F85061057B2D022DB2467B35431B4ED1
:10514000C6F8AC50857B2D022EB2C57B2E43174D81
:10515000C5F8B060057C2D022DB2467C3543134E58
:10516000C6F85C51857C2D022EB2C57C2E430F4DB6
:10517000C5F86061057D2D022DB2467D354300EEF8
:10518000105AB8EEC00AF2EE040A80EE201A074D5B
:1051900085ED5B1A857D2D022DB2C67D354307E076
:1051A00000440040000C024000480040A00F0020D6
:1051B00000EE105AB8EEC00AF2EE040A80EE201A91
:1051C000FE4D85ED5C1ABBE28578032D40D1057953
:1051D0002D022DB246793543F84EC6F888508579B0
:1051E0002D022DB2C6793543F44EC6F83851057AF2
:1051F0002D022DB2467A354300EE105AB8EEC00AA1
:10520000EE4D85ED310A857A2D022DB2C67A3543F1
:1052100000EE105AB8EEC00AE84D85ED5D0A057B38
:105220002D022DB2467B3543E44EC6F87851857B7E
:105230002D022DB2C67B3543E04EC6F83C51057CAD
:105240002D022DB2467C3543DC4EC6F8405177E244
:105250008578042D03D10579D94E357070E28578B3
:10526000062D30D105792D022DB246793543D34E26
:10527000C6F8045185792D022EB2C5792E43CF4D43
:10528000C5F80861057A2D022DB2467A3543CB4E1A
:10529000C6F8EC50857A2D022DB2C67A3543C74E3A
:1052A000C6F8F050057B2D022DB2467B3543C34E28
:1052B000C6F8F450857B2D022EB2C57B2E43BF4D20
:1052C000C5F8F8603CE28578072D28D105792D02D4
:1052D0002DB246793543B94EC6F8FC5185792D0279
:1052E0002DB2C6793543B54EC6F80052057A2D0267
:1052F0002DB2467A3543B14EC6F80452857A2D0256
:105300002DB2C67A3543AD4EC6F80852057B2D0244
:105310002DB2467B3543A94EC6F80C5210E2857873
:10532000082D55D105792D06467945EA0645867939
:1053300045EA0625C6793543A04EC6F8D451057A0C
:105340002D06467A45EA0645867A45EA0625C67A56
:1053500035439A4EC6F8D851067B984D85F8EC61D6
:10536000467B85F8ED61857B2D06C67B45EA0645C3
:10537000067C45EA0625467C3543904EC6F8DC514E
:10538000857C2D06C67C45EA0645067D45EA062550
:10539000467D3543894EC6F8E051857D2D06C67D94
:1053A00045EA0645067E45EA0625467E3543834E98
:1053B000C6F8E451857E2D06C67E45EA0645067F81
:1053C00045EA0625467F35437C4EC6F8E851B7E1ED
:1053D0008578712D54D105792D022DB2467935434A
:1053E000764E356485792D022DB2C6793543734EDC
:1053F0007564057A2D022DB2467A35436F4EB56439
:10540000857A2D022DB2C67A35436C4EF564057B44
:105410002D022DB2467B3543684E3565857B2D02C6
:105420002DB2C67B3543654E7565057C2D022DB2C8
:10543000467C3543614EB565857C2D022DB2C67C18
:1054400035435E4EF565057D2D022DB2467D354313
:105450005A4E3566857D2D022DB2C67D3543574E99
:105460003567057E2D022DB2467E3543534E756756
:10547000857E2D022DB2C67E3543504EB5675FE165
:105480008578742D7ED14579067945EA06254B4EFF
:10549000A6F88A51C579867945EA0626474DA5F8CA
:1054A0008C61457A067A45EA0626444DA5F88E6158
:1054B000C57A867A45EA0626404DA5F89061457B77
:1054C000067B45EA06263D4DA5F89261C57B867BA5
:1054D00045EA0626394DA5F894614579067945EAED
:1054E0000626364DA5F89661C579867945EA0626E1
:1054F000324DA5F89861457A067A45EA06262F4D81
:10550000A5F89A61C57A867A45EA06262B4DA5F854
:105510009C61457B067B45EA0626284DA5F89E61E1
:10552000C57B867B45EA0626244DA5F8A061457912
:10553000067945EA0626214DA5F8A261C579867946
:1055400045EA06261D4DA5F8A461457A067A45EA86
:1055500006261A4DA5F8A661C57A867A45EA06267A
:10556000164DA5F8A861457B067B45EA0626134D36
:10557000A5F8AA61C57B867B45EA06260F4DA5F8EE
:10558000AC6100E02FE04579067945EA06260B4D2F
:10559000A5F8AE61C579867945EA0626074DA5F8D6
:1055A000B061457A067A45EA0626044DA5F8B2614F
:1055B000C57A867A45EA0626004D03E0A00F002052
:1055C00019020020A5F8B461457B067B45EA062652
:1055D000A24DA5F8B661C57B867B45EA06269F4DA0
:1055E000A5F8B861ACE08578742D7CD14579067951
:1055F00045EA0625994EA6F88A51C579867945EA85
:105600000626964DA5F88C61457A067A45EA062667
:10561000924DA5F88E61C57A867A45EA06268F4DA9
:10562000A5F89061457B067B45EA06268B4DA5F8DB
:105630009261C57B867B45EA0626884DA5F8946174
:105640004579067945EA0626844DA5F89661C5791F
:10565000867945EA0626814DA5F89861457A067A4D
:1056600045EA06267D4DA5F89A61C57A867A45EA0F
:1056700006267A4DA5F89C61457B067B45EA062601
:10568000764DA5F89E61C57B867B45EA0626734D5F
:10569000A5F8A0614579067945EA06266F4DA5F87B
:1056A000A261C579867945EA06266C4DA5F8A46104
:1056B000457A067A45EA0626684DA5F8A661C57AB8
:1056C000867A45EA0626654DA5F8A861457B067BE6
:1056D00045EA0626614DA5F8AA61C57B867B45EAA9
:1056E00006265E4D00E02BE0A5F8AC614579067911
:1056F00045EA0626594DA5F8AE61C579867945EA91
:105700000626564DA5F8B061457A067A45EA062682
:10571000524DA5F8B261C57A867A45EA06264F4D04
:10572000A5F8B461457B067B45EA06264B4DA5F8F6
:10573000B661C57B867B45EA0626484DA5F8B8616B
:1057400000BF1BE410B50821454801F053F80128BB
:1057500007D10821424801F05AF8414800F09EFF65
:105760007AE040F225513E4801F05AF8002873D003
:1057700040F225513A4801F08EF8394800F08EFF8A
:10578000C4B23848007838B9AA2C05D1012035496F
:105790000870354804705FE032480078012807D16E
:1057A000AF2C05D102202F4908702F48447053E0D8
:1057B0002C480078022809D1002C07DDF12C05DAED
:1057C0000320284908702848847045E0254800785F
:1057D00003280CD1322C0ADA04202249087022480E
:1057E000C4702248047000202149087034E01D482C
:1057F0000078042819D11D480078002815DD1B48C1
:105800000078401E1949087019480078184909782D
:10581000491C174A1170001D13490C541348007895
:10582000D0B905200F49087016E00E480078052809
:105830000FD100200B4908700D480078001D0A495F
:105840000C540B480078401DC1B20748FFF783FB9A
:1058500002E000200349087010BD0000A00F0020E6
:1058600000480040A602002088140020AA02002060
:10587000AB0200200948804709480047FEE7FEE7E1
:10588000FEE7FEE7FEE7FEE7FEE7FEE7FEE7FEE7F0
:1058900004480549054A064B7047000015110008E9
:1058A0008901000880BE012080C4012080C0012041
:1058B00080C0012032490143324A1160704770B5FF
:1058C000002100230F22C4781CB32E4C246804F45A
:1058D000E064C4F5E064C4F30721C1F10404E3B259
:1058E0000A4144789C40E1B28478144021430C077B
:1058F000210E254C05786155047804F01F0501241C
:10590000AC4005786D11AD0005F1E025C5F800410A
:1059100009E0047804F01F050124AC401B4D067813
:10592000761145F8264070BD194A0A400243154BCE
:105930001B1F1A60704739B1124A121D12680243C8
:10594000104B1B1D1A6006E00E4A121D126882439E
:105950000C4B1B1D1A607047042808D14FF0E02142
:10596000096941F004014FF0E022116107E04FF0B6
:10597000E021096921F004014FF0E0221161704734
:105980000000FA050CED00E000E400E080E100E03A
:1059900080FFFF1F10B504469848844208D10121BA
:1059A000084600F074FC0021012000F070FC76E055
:1059B0009348844208D10121022000F068FC0021B4
:1059C000022000F064FC6AE08E48844208D1012184
:1059D000042000F05CFC0021042000F058FC5EE094
:1059E0008948844208D10121082000F050FC0021A0
:1059F000082000F04CFC52E08448844208D1012188
:105A0000102000F044FC0021102000F040FC46E093
:105A10007F48844208D10121202000F038FC002179
:105A2000202000F034FC3AE07A48844208D1012179
:105A3000402000F02CFC0021402000F028FC2EE04B
:105A40007548844208D10121802000F020FC00210B
:105A5000802000F01CFC22E07048844208D1012123
:105A6000801500F014FC0021A01500F010FC16E0D9
:105A70006B48844208D10121401500F008FC002148
:105A8000601500F004FC0AE06648844207D1012159
:105A9000001500F0FCFB0021201500F0F8FB10BD04
:105AA000F0B50A4600210023002400BF3DE0012597
:105AB00005FA01F3156805EA03049C4234D1056830
:105AC0004F000326BE40B543056015794E00B54032
:105AD0000668354305601579012D02D01579022D30
